:100000000C9448000C945A000C945A000C945A001A
:100010000C945A000C945A000C945A000C945A00F8
:100020000C945A000C945A000C945A000C945A00E8
:100030000C945A000C945A000C945A000C945A00D8
:100040000C945A000C945A000C945A000C945A00C8
:100050000C945A000C945A000C945A000C945A00B8
:100060000C945A000C945A00183C7EFFFF7E3C18FA
:10007000FFC3C3C3C3C3C3FFC3E77E3C3C7EE7C328
:10008000FFFF7E24247EFFFFE7E7E7E7E7E7E7E7F8
:1000900011241FBECFEFD8E0DEBFCDBF21E0A0E02E
:1000A000B1E001C01D92A930B207E1F70E94F5004E
:1000B0000C9419010C9400008FEF84B98AB908954B
:1000C00080E017C0E82FF0E021E030E0082E02C009
:1000D000220F331F0A94E2F725B9E050FF4F9081B9
:1000E00090959BB9E9EFF0E03197F1F700C000007F
:1000F0008F5F883038F30895EF92FF920F931F932C
:10010000CF93DF93EC01E62EF12C3CC080E091E030
:100110000E9460001F5F01C010E01431B8F320E0BE
:100120000BC0822F90E0FC01EF5FFE4F3081FC019D
:10013000E050FF4F30832F5F283098F320E01AC043
:1001400088E090E0801B9109422F50E0840F951FBA
:10015000EF2DF0E0EE0FFF1FEE0FFF1FEE0FFF1F62
:10016000E40FF51FEC0FFD1FE491DC01A050BF4F21
:10017000EC932F5F201720F30F5F01C000E00930E0
:1001800058F2F394FE14D0F381E0E8120AC006C0DE
:1001900080E091E00E946000CF5F01C0C0E0C43603
:1001A000B8F3D1E019C080E091E00E946000CF5F19
:1001B00001C0C0E0C431B8F320E00BC0822F90E052
:1001C000FC01EF5FFE4F3081FC01E050FF4F3083B8
:1001D0002F5F283098F3DF5FD93058F3DF91CF914C
:1001E0001F910F91FF90EF9008950E945C0086B1DF
:1001F0008370813061F028F0823079F0833099F09B
:10020000F6CF61E088E890E00E947C00F0CF62E0E9
:1002100088E790E00E947C00EACF61E080E790E010
:100220000E947C00E4CF61E088E690E00E947C00C0
:06023000DECFF894FFCFC1
:00000001FF
