:100000000C946C000C947E000C947E000C947E008A
:100010000C947E000C947E000C947E000C947E0068
:100020000C947E000C947E000C947E000C947E0058
:100030000C947E000C947E000C947E000C947E0048
:100040000C947E000C947E000C947E000C947E0038
:100050000C947E000C947E000C947E000C947E0028
:100060000C947E000C947E00000055557F7F7F002D
:10007000007E7E1818181800007E7E667E66660078
:1000800000666C78786C66007E7E607E7E607E7E28
:10009000007E7E66667E7E0000C3E3D3D3CBC700BE
:1000A00000C3E7DBDBC3C3007E7E607E7E607E7EB6
:1000B000007E7E181800000000001E1E78780000E8
:1000C00000003C3C3C3C0000181818181818181880
:1000D000007E7E7E7E7E7E0011241FBECFEFD8E0A4
:1000E000DEBFCDBF21E0A0E0B1E001C01D92A9308C
:1000F000B207E1F70E9416010C9432010C94000043
:100100008FEF84B98AB90895E0E0F1E080E090E0F3
:1001100041E050E09A01082E01C0220F0A94EAF74C
:1001200025B9219120952BB9A9EFB0E01197F1F7EE
:1001300000C0000001968830910561F708956F9224
:100140007F928F929F92AF92BF92CF92DF92EF9267
:10015000FF920F931F93CF93DF937C01862E00E0D5
:1001600010E0912C98E0C92E91E0D92E28E0A22E23
:10017000B12C981469F1C0E0D0E07C2E84E1682EA7
:1001800080E091E00E9484006A946110F9CFE0E081
:10019000F1E081818193CE16DF06D9F7D501AC1B42
:1001A000BD0BA050BF4F80E090E0871548F4FC01E4
:1001B000E00FF11FEE0DFF1DE491ED930196F5CFD9
:1001C0002196C930D105C9F69394085F1F4FD1CF4E
:1001D00081E0981621F0D8E008E011E008C0C4E6FC
:1001E00080E091E00E948400C150D1F7F4CFC4E1D7
:1001F00080E091E00E948400C150D1F7E0E0F1E09E
:10020000818181930E171F07D9F7D15081F7DF91B4
:10021000CF911F910F91FF90EF90DF90CF90BF9003
:10022000AF909F908F907F906F9008950E94800074
:1002300086B18370823061F0833071F0813021F0BB
:1002400061E080ED90E00BC064E080EB90E007C0DF
:1002500068E080E790E003C061E088E690E00E94FB
:080260009F00E6CFF894FFCFE8
:00000001FF
