:02000000472C8B
:1000060083120313BC03BC033C08003C03181028EE
:10001600BC030000000000000728000000000000EC
:06002600000000000800CC
:10002C0083120313F801F9011030FC00710DF80D67
:10003C00F90D7408F8027508031C750FF902031802
:10004C002E287408F80775080318750FF9070310A4
:0A005C00F00DF10DFC0B1C2808004C
:1000660083120313FB01FA01F901F801A001730DD4
:10007600F80D7408F8027508031C750FF902760866
:10008600031C760FFA027708031C770FFB020001A8
:10009600031C0130A002F30D0730FC00730DF80DB0
:1000A600F90DFA0DFB0DA00D7408731C6C28F802EF
:1000B6007508031C750FF9027608031C760FFA0201
:1000C6007708031C770FFB020001031C0130A00216
:1000D6007D28F80775080318750FF90776080318C1
:1000E600760FFA0777080318770FFB070001031846
:1000F6000130A007F30DFC0B5128720DF80DF90D18
:10010600FA0DFB0DA00D7408731C9B28F8027508E8
:10011600031C750FF9027608031C760FFA0277089E
:10012600031C770FFB020001031C0130A002AC2860
:10013600F80775080318750FF90776080318760F80
:10014600FA0777080318770FFB0700010318013039
:10015600A007F20D0730FC00720DF80DF90DFA0D2F
:10016600FB0DA00D7408721CCA28F8027508031C42
:10017600750FF9027608031C760FFA027708031C3E
:10018600770FFB020001031C0130A002DB28F807F1
:1001960075080318750FF90776080318760FFA071E
:1001A60077080318770FFB07000103180130A00733
:1001B600F20DFC0BAF28710DF80DF90DFA0DFB0DC4
:1001C600A00D7408721CF928F8027508031C750F37
:1001D600F9027608031C760FFA027708031C770FDC
:1001E600FB020001031C0130A0020A29F80775086A
:1001F6000318750FF90776080318760FFA077708BC
:100206000318770FFB07000103180130A007F10D53
:100216000730FC00710DF80DF90DFA0DFB0DA00D60
:100226007408711C2829F8027508031C750FF90259
:100236007608031C760FFA027708031C770FFB0279
:100246000001031C0130A0023929F80775080318BC
:10025600750FF90776080318760FFA07770803185B
:10026600770FFB07000103180130A007F10DFC0B07
:100276000D29700DF80DF90DFA0DFB0DA00D740882
:10028600711C5729F8027508031C750FF9027608C8
:10029600031C760FFA027708031C770FFB02000196
:1002A600031C0130A0026829F80775080318750FAA
:1002B600F90776080318760FFA0777080318770FF9
:1002C600FB07000103180130A007F00D0730FC0002
:1002D600700DF80DF90DFA0DFB0DA00D7408701CCC
:1002E6008629F8027508031C750FF9027608031CA7
:1002F600760FFA027708031C770FFB020001031C36
:100306000130A0029729F80775080318750FF90739
:1003160076080318760FFA0777080318770FFB0796
:10032600000103180130A007F00DFC0B6B297018B3
:10033600AA297408F80775080318750FF9077608CF
:100346000318760FFA0777080318770FFB070800DC
:10035600831203132230FC00F801F901FA01FB01B4
:10036600FC030319E1290310FB0CFA0CF90CF80C39
:10037600F30CF20CF10CF00C031CB329FC0303196B
:10038600D3297408F80775080318750FF907760856
:100396000318760FFA0777080318770FFB07B729B4
:1003A6007408F80775080318750FF9077608031817
:0E03B600760FFA0777080318770FFB07080089
:1003C400403083120313F0001F30F100F201F301F7
:0203D40008001F
:1003D600710DF80DF90D7408F8027508031C750FF8
:1003E600F902F00DF10D0F30FC00710DF80DF90D4D
:1003F6007408701C042AF8027508031C750FF902AC
:10040600092AF80775080318750FF907F00DF10D9D
:10041600FC0BF8297018152A7408F80775080318D4
:08042600750FF9070000080042
:10042E00831203137408003A031D262A7508003A36
:10043E00031D262AFF30F0007F30F1007F2A831241
:10044E000313FD01F901F80171087004031900345A
:10045E0071087506FA00FA1BFD09FB01F51F3C2A0F
:10046E00F409F509F40A0319F50AF11F432AF009F4
:10047E00F109F00A0319F10A71087504FA00FA1B62
:10048E00582AEB217B186B2AFD1F0034F009F10965
:10049E00F00A0319F10AF809F909F80A0319F90A19
:1004AE000034F51F672AF11B632A7108F9007008E2
:1004BE00F800F101F0014B2AF101F001F00A0034CD
:1004CE00F109F009FB0A482AF80A0319F90A740817
:1004DE007802031D4B2A75087902031D4B2AF90178
:1004EE00F801F00A0319F10AF11F4B2A0000FF343C
:0204FE000800F4
:1005000083120313FB01FA01F9018030F800F10CAA
:10051000F00C031C942A7408F90775080318750F6A
:10052000FA070318FB0A0310F01F9C2A7408FA0745
:1005300075080318750FFB07FB0CFA0CF90CF80C87
:10054000031C872A7B08F3007A08F2007908F1007F
:060550007808F00008002D
:10055600831203133008A3003108F1000130F000C4
:1005660071080319BA2AF00D7010FF3EB42A7008FC
:10057600A100F0097008A2008030300784007008DE
:0A058600800584137008800508004A
:10059000E221E830F4000330F500F601F701AB2169
:1005A0007008B8007108B9007208BA007308BB007F
:1005B0003008F4003108F500F601F7013320700827
:1005C000B8007108B9007208BA007308BB0070085F
:1005D000F5007108F6007208F7007308F800F80CCF
:1005E000F70CF60CF50CF813F80CF70CF60CF50CF0
:1005F000F8137508F0007608F1007708F200780823
:10060000F300F30CF20CF10CF00CF3137008B400CF
:100610007108B500E2213208F4003308F500F60154
:10062000F701AB213408F9003508FA00FB01FC01A1
:100630000330F8007908F4007A08F5007B08F6002A
:100640007C08F700780803192C2BF40DF50DF60D36
:10065000F70D7410FF3E232B33207008B80071088B
:10066000B9007208BA007308BB000A30F400003009
:10067000F5003408F0003508F10016207008B400C9
:100680007108B50000307102031D482B0330700261
:1006900003184B2B982B230884003B08003C031DB8
:1006A0005B2B3A08003C031D5B2B3908003C031D03
:1006B0005B2B3808003C0318962B21088004350872
:1006C0000319722BB601B70100303702031D6A2BE4
:1006D000350836020318722BBC010320B60A031931
:1006E000B70A642B3408BC000320220880053508B3
:1006F00003198A2BB601B70100303702031D822B84
:100700003508360203188A2BBC010320B60A0319E8
:10071000B70A7C2B3408BC0003200130B802031C4C
:10072000B902031CBA02031CBB024D2B2208800530
:020730000800BF
:0E0732008312031325088A00240882000800A1
:1007400083120313AE01AF012908F100F201F10D8C
:10075000F20D711080302F06F000803072067002AA
:10076000031DB42B71082E0203183C2C2E08013EE9
:10077000F30000300318013E2F07F4007308F00067
:100780007408F100F00DF10D70102708F00728082B
:100790000318013EF1077008A4007108A500992311
:1007A0008A110A12F200A40A0319A50A99238A11D0
:1007B0000A12F3007208AA007308AB000130AC0003
:1007C0000030AD0080307306F00080307002031DF1
:1007D000EB2B003072020318FE2B2A08F0002B08C6
:1007E000F100FE30F400FF30F50080227008AA000E
:1007F0007108AB000330AC000030AD002E08F000F3
:100800002F08F100F00DF10D70102708F0072808EF
:100810000318013EF1077008A4007108A500992390
:100820008A110A12B000A40A0319A50A99238A1191
:100830000A12B1002C08F0002D08F100DC30F400A1
:100840000530F50080222A08F4002B08F500172255
:100850007008B2007108B300C8220D30FC00FB30F4
:10086000FD00FD0B312CFC0B312C00000000023090
:0A087000AE070318AF0AA42B08001E
:10087A00CE3083160313870007308312B000B1010C
:04088A00AB22080095
:10088E003D24C03087050708F000F00CF013073048
:10089E007005A6006E2C0716FC30A7000530A800C8
:1008AE003730A900A0237A2C87167C30A70004309D
:1008BE00A8006030A900A0237A2C30308704D830ED
:1008CE00A7000630A8001930A900A0237A2C26080C
:1008DE00013A0319522C2608023A03195B2C2608FA
:0A08EE00043A0319642C482C7B2CFB
:1008F800E434023408340034E43402340834003474
:100908004B34023408340034EE34013408340034F3
:100918000134003408340034EE340134083400342F
:100928000134003408340034933402340834003479
:100938000134003408340034933402340834003469
:100948000134003408340034933402340834003459
:100958003F340334083400343F340334083400345B
:100968007034033408340034DC340334083400347D
:1009780070340334083400347034033408340034D9
:1009880070340334083400349334023408340034A7
:1009980001340034083400344B3402340834003451
:1009A8000134003408340034E434023408340034A8
:1009B8000134003408340034E43402340834003498
:1009C8000134003408340034E43402340834003488
:1009D8009334023408340034933402340834003435
:1009E800E4340234083400349334023408340034D4
:1009F800E434023408340034E43402340834003473
:100A08004B34023408340034EE34013408340034F2
:100A18000134003408340034EE340134083400342E
:100A28000134003408340034933402340834003478
:100A38000134003408340034933402340834003468
:100A48000134003408340034933402340834003458
:100A58003F340334083400343F340334083400345A
:100A68007034033408340034DC340334083400347C
:100A780070340334083400347034033408340034D8
:100A880070340334083400349334023408340034A6
:100A980001340034083400344B3402340834003450
:100AA8000134003408340034E434023408340034A7
:100AB8000134003408340034E43402340834003497
:100AC8000134003408340034E43402340834003487
:100AD8009334023408340034933402340834003434
:100AE800E4340234083400349334023408340034D3
:100AF800E434023408340034E43402340834003472
:100B08004B34023408340034EE34013408340034F1
:100B18000134003408340034EE340134083400342D
:100B28000134003408340034933402340834003477
:100B38000134003408340034933402340834003467
:100B48000134003408340034933402340834003457
:100B58003F340334083400343F3403340834003459
:100B68007034033408340034DC340334083400347B
:100B780070340334083400347034033408340034D7
:100B880070340334083400349334023408340034A5
:100B980001340034083400344B340234083400344F
:100BA8000134003408340034E434023408340034A6
:100BB8000134003408340034E43402340834003496
:100BC8000134003408340034E43402340834003486
:100BD8009334023408340034933402340834003433
:100BE800E4340234083400349334023408340034D2
:100BF8009334023404340034EE34013408340034BD
:100C08000B340234083400344B34023404340034D6
:100C18000B34023408340034EE3401340834003420
:100C2800B834013404340034B8340134083400349E
:100C38000B3402340834003493340234043400345E
:100C48004B340234083400340B3402340834003492
:100C5800EE340134FC34FF340B34023408340034ED
:100C68004B340234043400349334023404340034F2
:100C78000B34023404340034B834013404340034FE
:100C8800B834013404340034EE3401340834003408
:100C98000B340234043400344B340234043400344A
:100CA800BA34023408340034703403340434003461
:100CB8001034033408340034BA34023408340034AD
:100CC80093340234FC34FF340B34023408340034D7
:100CD80093340234043400344B340234083400347E
:100CE8000B34023408340034EE3401340434003454
:100CF800EE340134083400340B3402340834003440
:100D08004B34023404340034933402340434003451
:100D18000B34023404340034B8340134043400345D
:100D2800B8340134023400349334023402340034C9
:100D38000B340234023400344B34023402340034AD
:100D4800EE340134023400340B34023402340034FB
:100D5800B8340134023400349F340134023400348E
:100D6800EE34013402340034933402340234003453
:100D78000B340234023400344B340234023400346D
:100D8800EE340134023400340B34023404340034B9
:100D9800933402340434003470340334023400349D
:080DA8003F340334023400342F
:100DB0000634013404340034063401340834003479
:100DC00026340134FC34FF3406340134FC34FF345F
:100DD0005D340134FC34FF344A340134FE34FF34D2
:100DE0000634013404340034063401340834003449
:100DF00026340134FC34FF3406340134FC34FF342F
:100E000088340134FC34FF345D340134FE34FF3463
:100E10000634013404340034063401340834003418
:100E20000B340234FC34FF34B8340134FC34FF3466
:100E30005D340134FC34FF344A340134FC34FF3473
:100E400026340134FC34FF34D23401340434003409
:100E5000D234013408340034B8340134FC34FF3463
:100E60005D340134FC34FF3488340134FC34FF3405
:080E70005D340134FE34FF344F
:04400E00F22F000786
:00000001FF
